{
    "_format": "hh-sol-artifact-1",
    "contractName": "SplitConnect",
    "sourceName": "contracts/SplitConnect.sol",
    "abi": [
        {
            "inputs": [
                {
                    "internalType": "string",
                    "name": "_name",
                    "type": "string"
                },
                {
                    "internalType": "address[]",
                    "name": "_participants",
                    "type": "address[]"
                }
            ],
            "stateMutability": "nonpayable",
            "type": "constructor"
        },
        {
            "anonymous": false,
            "inputs": [
                {
                    "indexed": true,
                    "internalType": "address",
                    "name": "from",
                    "type": "address"
                },
                {
                    "indexed": false,
                    "internalType": "uint256",
                    "name": "amount",
                    "type": "uint256"
                },
                {
                    "indexed": false,
                    "internalType": "string",
                    "name": "description",
                    "type": "string"
                }
            ],
            "name": "AddExpense",
            "type": "event"
        },
        {
            "inputs": [
                {
                    "internalType": "string",
                    "name": "description",
                    "type": "string"
                },
                {
                    "internalType": "uint256",
                    "name": "amount",
                    "type": "uint256"
                }
            ],
            "name": "addExpense",
            "outputs": [],
            "stateMutability": "nonpayable",
            "type": "function"
        },
        {
            "inputs": [],
            "name": "name",
            "outputs": [
                {
                    "internalType": "string",
                    "name": "",
                    "type": "string"
                }
            ],
            "stateMutability": "view",
            "type": "function"
        }
    ],
    "bytecode": "0x60806040523480156200001157600080fd5b5060405162000e6338038062000e638339818101604052810190620000379190620003dc565b6200006760405180606001604052806021815260200162000e4260219139836200013260201b6200020e1760201c565b81600090805190602001906200007f92919062000201565b5060005b81518110156200012957600060026000848481518110620000cd577f4e487b7100000000000000000000000000000000000000000000000000000000600052603260045260246000fd5b602002602001015173ffffffffffffffffffffffffffffffffffffffff1673ffffffffffffffffffffffffffffffffffffffff168152602001908152602001600020819055508080620001209062000655565b91505062000083565b5050506200075b565b620001d482826040516024016200014b92919062000490565b6040516020818303038152906040527f4b5c4277000000000000000000000000000000000000000000000000000000007bffffffffffffffffffffffffffffffffffffffffffffffffffffffff19166020820180517bffffffffffffffffffffffffffffffffffffffffffffffffffffffff8381831617835250505050620001d860201b60201c565b5050565b60008151905060006a636f6e736f6c652e6c6f679050602083016000808483855afa5050505050565b8280546200020f90620005e9565b90600052602060002090601f0160209004810192826200023357600085556200027f565b82601f106200024e57805160ff19168380011785556200027f565b828001600101855582156200027f579182015b828111156200027e57825182559160200191906001019062000261565b5b5090506200028e919062000292565b5090565b5b80821115620002ad57600081600090555060010162000293565b5090565b6000620002c8620002c284620004f4565b620004cb565b90508083825260208201905082856020860282011115620002e857600080fd5b60005b858110156200031c57816200030188826200036b565b845260208401935060208301925050600181019050620002eb565b5050509392505050565b60006200033d620003378462000523565b620004cb565b9050828152602081018484840111156200035657600080fd5b62000363848285620005b3565b509392505050565b6000815190506200037c8162000741565b92915050565b600082601f8301126200039457600080fd5b8151620003a6848260208601620002b1565b91505092915050565b600082601f830112620003c157600080fd5b8151620003d384826020860162000326565b91505092915050565b60008060408385031215620003f057600080fd5b600083015167ffffffffffffffff8111156200040b57600080fd5b6200041985828601620003af565b925050602083015167ffffffffffffffff8111156200043757600080fd5b620004458582860162000382565b9150509250929050565b60006200045c8262000559565b62000468818562000564565b93506200047a818560208601620005b3565b620004858162000730565b840191505092915050565b60006040820190508181036000830152620004ac81856200044f565b90508181036020830152620004c281846200044f565b90509392505050565b6000620004d7620004ea565b9050620004e582826200061f565b919050565b6000604051905090565b600067ffffffffffffffff82111562000512576200051162000701565b5b602082029050602081019050919050565b600067ffffffffffffffff82111562000541576200054062000701565b5b6200054c8262000730565b9050602081019050919050565b600081519050919050565b600082825260208201905092915050565b6000620005828262000589565b9050919050565b600073ffffffffffffffffffffffffffffffffffffffff82169050919050565b6000819050919050565b60005b83811015620005d3578082015181840152602081019050620005b6565b83811115620005e3576000848401525b50505050565b600060028204905060018216806200060257607f821691505b60208210811415620006195762000618620006d2565b5b50919050565b6200062a8262000730565b810181811067ffffffffffffffff821117156200064c576200064b62000701565b5b80604052505050565b60006200066282620005a9565b91507fffffffffffffffffffffffffffffffffffffffffffffffffffffffffffffffff821415620006985762000697620006a3565b5b600182019050919050565b7f4e487b7100000000000000000000000000000000000000000000000000000000600052601160045260246000fd5b7f4e487b7100000000000000000000000000000000000000000000000000000000600052602260045260246000fd5b7f4e487b7100000000000000000000000000000000000000000000000000000000600052604160045260246000fd5b6000601f19601f8301169050919050565b6200074c8162000575565b81146200075857600080fd5b50565b6106d7806200076b6000396000f3fe608060405234801561001057600080fd5b50600436106100365760003560e01c806306fdde031461003b578063a4df1f5a14610059575b600080fd5b610043610075565b60405161005091906103ec565b60405180910390f35b610073600480360381019061006e9190610350565b610103565b005b6000805461008290610589565b80601f01602080910402602001604051908101604052809291908181526020018280546100ae90610589565b80156100fb5780601f106100d0576101008083540402835291602001916100fb565b820191906000526020600020905b8154815290600101906020018083116100de57829003601f168201915b505050505081565b6000600260003373ffffffffffffffffffffffffffffffffffffffff1673ffffffffffffffffffffffffffffffffffffffff168152602001908152602001600020541061020a5780600260003373ffffffffffffffffffffffffffffffffffffffff1673ffffffffffffffffffffffffffffffffffffffff168152602001908152602001600020600082825461019991906104e7565b9250508190555080600160008282546101b291906104e7565b925050819055503373ffffffffffffffffffffffffffffffffffffffff167f4ffe02abfe75b5d05d2f9d73a9dee4bae83ce768ca7d98981f0680dc021beb278284604051610201929190610445565b60405180910390a25b5050565b6102a6828260405160240161022492919061040e565b6040516020818303038152906040527f4b5c4277000000000000000000000000000000000000000000000000000000007bffffffffffffffffffffffffffffffffffffffffffffffffffffffff19166020820180517bffffffffffffffffffffffffffffffffffffffffffffffffffffffff83818316178352505050506102aa565b5050565b60008151905060006a636f6e736f6c652e6c6f679050602083016000808483855afa5050505050565b60006102e66102e18461049a565b610475565b9050828152602081018484840111156102fe57600080fd5b610309848285610547565b509392505050565b600082601f83011261032257600080fd5b81356103328482602086016102d3565b91505092915050565b60008135905061034a8161068a565b92915050565b6000806040838503121561036357600080fd5b600083013567ffffffffffffffff81111561037d57600080fd5b61038985828601610311565b925050602061039a8582860161033b565b9150509250929050565b60006103af826104cb565b6103b981856104d6565b93506103c9818560208601610556565b6103d281610679565b840191505092915050565b6103e68161053d565b82525050565b6000602082019050818103600083015261040681846103a4565b905092915050565b6000604082019050818103600083015261042881856103a4565b9050818103602083015261043c81846103a4565b90509392505050565b600060408201905061045a60008301856103dd565b818103602083015261046c81846103a4565b90509392505050565b600061047f610490565b905061048b82826105bb565b919050565b6000604051905090565b600067ffffffffffffffff8211156104b5576104b461064a565b5b6104be82610679565b9050602081019050919050565b600081519050919050565b600082825260208201905092915050565b60006104f28261053d565b91506104fd8361053d565b9250827fffffffffffffffffffffffffffffffffffffffffffffffffffffffffffffffff03821115610532576105316105ec565b5b828201905092915050565b6000819050919050565b82818337600083830152505050565b60005b83811015610574578082015181840152602081019050610559565b83811115610583576000848401525b50505050565b600060028204905060018216806105a157607f821691505b602082108114156105b5576105b461061b565b5b50919050565b6105c482610679565b810181811067ffffffffffffffff821117156105e3576105e261064a565b5b80604052505050565b7f4e487b7100000000000000000000000000000000000000000000000000000000600052601160045260246000fd5b7f4e487b7100000000000000000000000000000000000000000000000000000000600052602260045260246000fd5b7f4e487b7100000000000000000000000000000000000000000000000000000000600052604160045260246000fd5b6000601f19601f8301169050919050565b6106938161053d565b811461069e57600080fd5b5056fea264697066735822122082692b3a278c4e860cbab4db4d89d22a9f4ab256405e67308bc0076b991e2f6864736f6c634300080400334465706c6f79696e672053706c6974436f6e6e6563742077697468206e616d653a",
    "linkReferences": {},
    "deployedLinkReferences": {}
}